{"abi":[{"type":"constructor","inputs":[],"stateMutability":"nonpayable"},{"type":"function","name":"authorizedWriter","inputs":[],"outputs":[{"name":"","type":"address","internalType":"address"}],"stateMutability":"view"},{"type":"function","name":"deployer","inputs":[],"outputs":[{"name":"","type":"address","internalType":"address"}],"stateMutability":"view"},{"type":"function","name":"getSnapshot","inputs":[{"name":"tokenA","type":"address","internalType":"address"},{"name":"tokenB","type":"address","internalType":"address"}],"outputs":[{"name":"","type":"tuple","internalType":"struct ILiquidityCache.LiquiditySnapshot","components":[{"name":"unichainImpactBps","type":"uint256","internalType":"uint256"},{"name":"baseImpactBps","type":"uint256","internalType":"uint256"},{"name":"optimismImpactBps","type":"uint256","internalType":"uint256"},{"name":"timestamp","type":"uint256","internalType":"uint256"}]}],"stateMutability":"view"},{"type":"function","name":"setWriter","inputs":[{"name":"writer","type":"address","internalType":"address"}],"outputs":[],"stateMutability":"nonpayable"},{"type":"function","name":"writeSnapshot","inputs":[{"name":"tokenA","type":"address","internalType":"address"},{"name":"tokenB","type":"address","internalType":"address"},{"name":"snapshot","type":"tuple","internalType":"struct ILiquidityCache.LiquiditySnapshot","components":[{"name":"unichainImpactBps","type":"uint256","internalType":"uint256"},{"name":"baseImpactBps","type":"uint256","internalType":"uint256"},{"name":"optimismImpactBps","type":"uint256","internalType":"uint256"},{"name":"timestamp","type":"uint256","internalType":"uint256"}]}],"outputs":[],"stateMutability":"nonpayable"},{"type":"event","name":"SnapshotWritten","inputs":[{"name":"tokenA","type":"address","indexed":true,"internalType":"address"},{"name":"tokenB","type":"address","indexed":true,"internalType":"address"},{"name":"timestamp","type":"uint256","indexed":false,"internalType":"uint256"}],"anonymous":false},{"type":"event","name":"WriterUpdated","inputs":[{"name":"oldWriter","type":"address","indexed":true,"internalType":"address"},{"name":"newWriter","type":"address","indexed":true,"internalType":"address"}],"anonymous":false},{"type":"error","name":"Unauthorized","inputs":[]}],"bytecode":{"object":"0x60a08060405234602957336080526103a3908161002e823960805181818161014e015261023f0152f35b5f80fdfe60806040526004361015610011575f80fd5b5f3560e01c806339e20523146102245780634d1df0071461017d578063d5f3948814610139578063e65aa740146101125763e823b2bc14610050575f80fd5b3461010e5760c036600319011261010e576100696102b6565b6100716102cc565b608036604319011261010e575f546001600160a01b03163303610100577f66178d559643a124d634a7a49de0c19a14c1dec10ad2d6aa707c21697a85c0be6020826100be60039486610312565b5f526001825260405f2060443581556064356001820155608435600282015560a435948591015560405193845260018060a01b03169360018060a01b031692a3005b6282b42960e81b5f5260045ffd5b5f80fd5b3461010e575f36600319011261010e575f546040516001600160a01b039091168152602090f35b3461010e575f36600319011261010e576040517f00000000000000000000000000000000000000000000000000000000000000006001600160a01b03168152602090f35b3461010e57604036600319011261010e576101c76101996102b6565b6101a16102cc565b905f60606040516101b1816102e2565b8281528260208201528260408201520152610312565b5f526001602052608060405f206040516101e0816102e2565b815491828252600181015460208301908152606060036002840154936040860194855201549301928352604051938452516020840152516040830152516060820152f35b3461010e57602036600319011261010e5761023d6102b6565b7f00000000000000000000000000000000000000000000000000000000000000006001600160a01b03163303610100575f80546001600160a01b0392831692909183918316907f6066ecf172c56cf5aa625c83877b72d901aa6c08723b34b166c4661b7e04aed69080a36001600160a01b031916175f55005b600435906001600160a01b038216820361010e57565b602435906001600160a01b038216820361010e57565b6080810190811067ffffffffffffffff8211176102fe57604052565b634e487b7160e01b5f52604160045260245ffd5b6001600160a01b03828116908216101561036857905b604080516001600160a01b0393841660208201908152939092168282015281526060810167ffffffffffffffff8111828210176102fe5760405251902090565b61032856fea2646970667358221220b630913f386e4eb029f9419e24163ef963a1fd42513579dae95ad5a0c8c3284b64736f6c634300081a0033","linkReferences":{}},"methodIdentifiers":{"authorizedWriter()":"e65aa740","deployer()":"d5f39488","getSnapshot(address,address)":"4d1df007","setWriter(address)":"39e20523","writeSnapshot(address,address,(uint256,uint256,uint256,uint256))":"e823b2bc"},"id":0}