{"abi":[{"type":"constructor","inputs":[{"name":"_poolManager","type":"address","internalType":"contract IPoolManager"},{"name":"_cache","type":"address","internalType":"contract ILiquidityCache"}],"stateMutability":"nonpayable"},{"type":"function","name":"CHAIN_BASE","inputs":[],"outputs":[{"name":"","type":"uint8","internalType":"uint8"}],"stateMutability":"view"},{"type":"function","name":"CHAIN_OPTIMISM","inputs":[],"outputs":[{"name":"","type":"uint8","internalType":"uint8"}],"stateMutability":"view"},{"type":"function","name":"CHAIN_UNICHAIN","inputs":[],"outputs":[{"name":"","type":"uint8","internalType":"uint8"}],"stateMutability":"view"},{"type":"function","name":"DEFAULT_MAX_STALENESS","inputs":[],"outputs":[{"name":"","type":"uint256","internalType":"uint256"}],"stateMutability":"view"},{"type":"function","name":"DEFAULT_ROUTING_THRESHOLD","inputs":[],"outputs":[{"name":"","type":"uint256","internalType":"uint256"}],"stateMutability":"view"},{"type":"function","name":"afterAddLiquidity","inputs":[{"name":"","type":"address","internalType":"address"},{"name":"","type":"tuple","internalType":"struct PoolKey","components":[{"name":"currency0","type":"address","internalType":"Currency"},{"name":"currency1","type":"address","internalType":"Currency"},{"name":"fee","type":"uint24","internalType":"uint24"},{"name":"tickSpacing","type":"int24","internalType":"int24"},{"name":"hooks","type":"address","internalType":"contract IHooks"}]},{"name":"","type":"tuple","internalType":"struct IPoolManager.ModifyLiquidityParams","components":[{"name":"tickLower","type":"int24","internalType":"int24"},{"name":"tickUpper","type":"int24","internalType":"int24"},{"name":"liquidityDelta","type":"int256","internalType":"int256"},{"name":"salt","type":"bytes32","internalType":"bytes32"}]},{"name":"","type":"int256","internalType":"BalanceDelta"},{"name":"","type":"int256","internalType":"BalanceDelta"},{"name":"","type":"bytes","internalType":"bytes"}],"outputs":[{"name":"","type":"bytes4","internalType":"bytes4"},{"name":"","type":"int256","internalType":"BalanceDelta"}],"stateMutability":"pure"},{"type":"function","name":"afterDonate","inputs":[{"name":"","type":"address","internalType":"address"},{"name":"","type":"tuple","internalType":"struct PoolKey","components":[{"name":"currency0","type":"address","internalType":"Currency"},{"name":"currency1","type":"address","internalType":"Currency"},{"name":"fee","type":"uint24","internalType":"uint24"},{"name":"tickSpacing","type":"int24","internalType":"int24"},{"name":"hooks","type":"address","internalType":"contract IHooks"}]},{"name":"","type":"uint256","internalType":"uint256"},{"name":"","type":"uint256","internalType":"uint256"},{"name":"","type":"bytes","internalType":"bytes"}],"outputs":[{"name":"","type":"bytes4","internalType":"bytes4"}],"stateMutability":"pure"},{"type":"function","name":"afterInitialize","inputs":[{"name":"","type":"address","internalType":"address"},{"name":"key","type":"tuple","internalType":"struct PoolKey","components":[{"name":"currency0","type":"address","internalType":"Currency"},{"name":"currency1","type":"address","internalType":"Currency"},{"name":"fee","type":"uint24","internalType":"uint24"},{"name":"tickSpacing","type":"int24","internalType":"int24"},{"name":"hooks","type":"address","internalType":"contract IHooks"}]},{"name":"","type":"uint160","internalType":"uint160"},{"name":"","type":"int24","internalType":"int24"}],"outputs":[{"name":"","type":"bytes4","internalType":"bytes4"}],"stateMutability":"nonpayable"},{"type":"function","name":"afterRemoveLiquidity","inputs":[{"name":"","type":"address","internalType":"address"},{"name":"","type":"tuple","internalType":"struct PoolKey","components":[{"name":"currency0","type":"address","internalType":"Currency"},{"name":"currency1","type":"address","internalType":"Currency"},{"name":"fee","type":"uint24","internalType":"uint24"},{"name":"tickSpacing","type":"int24","internalType":"int24"},{"name":"hooks","type":"address","internalType":"contract IHooks"}]},{"name":"","type":"tuple","internalType":"struct IPoolManager.ModifyLiquidityParams","components":[{"name":"tickLower","type":"int24","internalType":"int24"},{"name":"tickUpper","type":"int24","internalType":"int24"},{"name":"liquidityDelta","type":"int256","internalType":"int256"},{"name":"salt","type":"bytes32","internalType":"bytes32"}]},{"name":"","type":"int256","internalType":"BalanceDelta"},{"name":"","type":"int256","internalType":"BalanceDelta"},{"name":"","type":"bytes","internalType":"bytes"}],"outputs":[{"name":"","type":"bytes4","internalType":"bytes4"},{"name":"","type":"int256","internalType":"BalanceDelta"}],"stateMutability":"pure"},{"type":"function","name":"afterSwap","inputs":[{"name":"","type":"address","internalType":"address"},{"name":"key","type":"tuple","internalType":"struct PoolKey","components":[{"name":"currency0","type":"address","internalType":"Currency"},{"name":"currency1","type":"address","internalType":"Currency"},{"name":"fee","type":"uint24","internalType":"uint24"},{"name":"tickSpacing","type":"int24","internalType":"int24"},{"name":"hooks","type":"address","internalType":"contract IHooks"}]},{"name":"params","type":"tuple","internalType":"struct IPoolManager.SwapParams","components":[{"name":"zeroForOne","type":"bool","internalType":"bool"},{"name":"amountSpecified","type":"int256","internalType":"int256"},{"name":"sqrtPriceLimitX96","type":"uint160","internalType":"uint160"}]},{"name":"","type":"int256","internalType":"BalanceDelta"},{"name":"","type":"bytes","internalType":"bytes"}],"outputs":[{"name":"","type":"bytes4","internalType":"bytes4"},{"name":"","type":"int128","internalType":"int128"}],"stateMutability":"nonpayable"},{"type":"function","name":"beforeAddLiquidity","inputs":[{"name":"","type":"address","internalType":"address"},{"name":"","type":"tuple","internalType":"struct PoolKey","components":[{"name":"currency0","type":"address","internalType":"Currency"},{"name":"currency1","type":"address","internalType":"Currency"},{"name":"fee","type":"uint24","internalType":"uint24"},{"name":"tickSpacing","type":"int24","internalType":"int24"},{"name":"hooks","type":"address","internalType":"contract IHooks"}]},{"name":"","type":"tuple","internalType":"struct IPoolManager.ModifyLiquidityParams","components":[{"name":"tickLower","type":"int24","internalType":"int24"},{"name":"tickUpper","type":"int24","internalType":"int24"},{"name":"liquidityDelta","type":"int256","internalType":"int256"},{"name":"salt","type":"bytes32","internalType":"bytes32"}]},{"name":"","type":"bytes","internalType":"bytes"}],"outputs":[{"name":"","type":"bytes4","internalType":"bytes4"}],"stateMutability":"pure"},{"type":"function","name":"beforeDonate","inputs":[{"name":"","type":"address","internalType":"address"},{"name":"","type":"tuple","internalType":"struct PoolKey","components":[{"name":"currency0","type":"address","internalType":"Currency"},{"name":"currency1","type":"address","internalType":"Currency"},{"name":"fee","type":"uint24","internalType":"uint24"},{"name":"tickSpacing","type":"int24","internalType":"int24"},{"name":"hooks","type":"address","internalType":"contract IHooks"}]},{"name":"","type":"uint256","internalType":"uint256"},{"name":"","type":"uint256","internalType":"uint256"},{"name":"","type":"bytes","internalType":"bytes"}],"outputs":[{"name":"","type":"bytes4","internalType":"bytes4"}],"stateMutability":"pure"},{"type":"function","name":"beforeInitialize","inputs":[{"name":"","type":"address","internalType":"address"},{"name":"","type":"tuple","internalType":"struct PoolKey","components":[{"name":"currency0","type":"address","internalType":"Currency"},{"name":"currency1","type":"address","internalType":"Currency"},{"name":"fee","type":"uint24","internalType":"uint24"},{"name":"tickSpacing","type":"int24","internalType":"int24"},{"name":"hooks","type":"address","internalType":"contract IHooks"}]},{"name":"","type":"uint160","internalType":"uint160"}],"outputs":[{"name":"","type":"bytes4","internalType":"bytes4"}],"stateMutability":"pure"},{"type":"function","name":"beforeRemoveLiquidity","inputs":[{"name":"","type":"address","internalType":"address"},{"name":"","type":"tuple","internalType":"struct PoolKey","components":[{"name":"currency0","type":"address","internalType":"Currency"},{"name":"currency1","type":"address","internalType":"Currency"},{"name":"fee","type":"uint24","internalType":"uint24"},{"name":"tickSpacing","type":"int24","internalType":"int24"},{"name":"hooks","type":"address","internalType":"contract IHooks"}]},{"name":"","type":"tuple","internalType":"struct IPoolManager.ModifyLiquidityParams","components":[{"name":"tickLower","type":"int24","internalType":"int24"},{"name":"tickUpper","type":"int24","internalType":"int24"},{"name":"liquidityDelta","type":"int256","internalType":"int256"},{"name":"salt","type":"bytes32","internalType":"bytes32"}]},{"name":"","type":"bytes","internalType":"bytes"}],"outputs":[{"name":"","type":"bytes4","internalType":"bytes4"}],"stateMutability":"pure"},{"type":"function","name":"beforeSwap","inputs":[{"name":"","type":"address","internalType":"address"},{"name":"key","type":"tuple","internalType":"struct PoolKey","components":[{"name":"currency0","type":"address","internalType":"Currency"},{"name":"currency1","type":"address","internalType":"Currency"},{"name":"fee","type":"uint24","internalType":"uint24"},{"name":"tickSpacing","type":"int24","internalType":"int24"},{"name":"hooks","type":"address","internalType":"contract IHooks"}]},{"name":"params","type":"tuple","internalType":"struct IPoolManager.SwapParams","components":[{"name":"zeroForOne","type":"bool","internalType":"bool"},{"name":"amountSpecified","type":"int256","internalType":"int256"},{"name":"sqrtPriceLimitX96","type":"uint160","internalType":"uint160"}]},{"name":"","type":"bytes","internalType":"bytes"}],"outputs":[{"name":"","type":"bytes4","internalType":"bytes4"},{"name":"","type":"int256","internalType":"BeforeSwapDelta"},{"name":"","type":"uint24","internalType":"uint24"}],"stateMutability":"nonpayable"},{"type":"function","name":"cache","inputs":[],"outputs":[{"name":"","type":"address","internalType":"contract ILiquidityCache"}],"stateMutability":"view"},{"type":"function","name":"getPoolConfig","inputs":[{"name":"poolId","type":"bytes32","internalType":"bytes32"}],"outputs":[{"name":"","type":"tuple","internalType":"struct IPathfinder.PoolConfig","components":[{"name":"routingThreshold","type":"uint256","internalType":"uint256"},{"name":"maxStaleness","type":"uint256","internalType":"uint256"},{"name":"smallTradeLimit","type":"uint256","internalType":"uint256"},{"name":"whaleTradeLimit","type":"uint256","internalType":"uint256"}]}],"stateMutability":"view"},{"type":"function","name":"poolManager","inputs":[],"outputs":[{"name":"","type":"address","internalType":"contract IPoolManager"}],"stateMutability":"view"},{"type":"function","name":"registerConfig","inputs":[{"name":"key","type":"tuple","internalType":"struct PoolKey","components":[{"name":"currency0","type":"address","internalType":"Currency"},{"name":"currency1","type":"address","internalType":"Currency"},{"name":"fee","type":"uint24","internalType":"uint24"},{"name":"tickSpacing","type":"int24","internalType":"int24"},{"name":"hooks","type":"address","internalType":"contract IHooks"}]},{"name":"config","type":"tuple","internalType":"struct IPathfinder.PoolConfig","components":[{"name":"routingThreshold","type":"uint256","internalType":"uint256"},{"name":"maxStaleness","type":"uint256","internalType":"uint256"},{"name":"smallTradeLimit","type":"uint256","internalType":"uint256"},{"name":"whaleTradeLimit","type":"uint256","internalType":"uint256"}]}],"outputs":[],"stateMutability":"nonpayable"},{"type":"event","name":"SwapRouted","inputs":[{"name":"poolId","type":"bytes32","indexed":true,"internalType":"bytes32"},{"name":"destination","type":"uint8","indexed":false,"internalType":"uint8"},{"name":"reason","type":"string","indexed":false,"internalType":"string"},{"name":"improvementBps","type":"uint256","indexed":false,"internalType":"uint256"}],"anonymous":false},{"type":"event","name":"SwapSettled","inputs":[{"name":"poolId","type":"bytes32","indexed":true,"internalType":"bytes32"},{"name":"amountSpecified","type":"int256","indexed":false,"internalType":"int256"},{"name":"zeroForOne","type":"bool","indexed":false,"internalType":"bool"}],"anonymous":false},{"type":"error","name":"HookNotImplemented","inputs":[]},{"type":"error","name":"NotPoolManager","inputs":[]},{"type":"error","name":"PoolNotInitialized","inputs":[]}],"bytecode":{"object":"0x60c03460a357601f610eb138819003918201601f19168301916001600160401b0383118484101760a757808492604094855283398101031260a3578051906001600160a01b038216820360a35760200151906001600160a01b038216820360a35760805260a052604051610df590816100bc8239608051818181610149015281816102060152818161031901526104cb015260a0518181816104440152610a430152f35b5f80fd5b634e487b7160e01b5f52604160045260245ffdfe6080806040526004361015610012575f80fd5b5f3560e01c908163037aadbe146106155750806321d0ee7014610610578063259982e51461061057806328e346b814610542578063348af9ec14610527578063575e24b41461047357806360c7d2951461042f5780636c2bbe7e146102bf5780636fe7e6eb146102de57806372ab3682146102c45780639f063efc146102bf578063adbf26b3146102a4578063b47b2fb1146101ae578063b6a8b0fa146100ed578063bede10f514610193578063c725d4d414610178578063dc4c90d314610134578063dc98354e146100f25763e1b4af69146100ed575f80fd5b6107df565b346101305760e03660031901126101305761010b6106a4565b5060a0366023190112610130576101206107b9565b50630a85dc2960e01b5f5260045ffd5b5f80fd5b34610130575f366003190112610130576040517f00000000000000000000000000000000000000000000000000000000000000006001600160a01b03168152602090f35b34610130575f366003190112610130576020604051601e8152f35b34610130575f36600319011261013057602060405160028152f35b3461013057610160366003190112610130576101c86106a4565b5060a03660231901126101305760603660c3190112610130576101443567ffffffffffffffff8111610130576102029036906004016106ba565b50507f00000000000000000000000000000000000000000000000000000000000000006001600160a01b031633036102955760a061023f3661087e565b2060c4358015158091036101305760407f33b0092755e77961334071d4b7e6a8455940412f9e75668068c65ac53e7325ed9181519060e43582526020820152a26040805163b47b2fb160e01b81525f6020820152f35b63570c108560e11b5f5260045ffd5b34610130575f36600319011261013057602060405160018152f35b61075a565b34610130575f3660031901126101305760206040515f8152f35b3461013057610100366003190112610130576102f86106a4565b5060a03660231901126101305761030d6107b9565b506103166107cf565b507f00000000000000000000000000000000000000000000000000000000000000006001600160a01b031633036102955760a06103523661087e565b20805f525f60205260405f206040519061036b82610832565b8054918281526003600183015492836020840152600281015460408401520154606082015291159081610426575b506103fc575b815f5260016020526003606060405f209280518455602081015160018501556040810151600285015501519101555f525f6020525f60036040822082815582600182015582600282015501556020604051636fe7e6eb60e01b8152f35b5060405161040981610832565b600f8152601e60208201525f60408201525f19606082015261039f565b90501583610399565b34610130575f366003190112610130576040517f00000000000000000000000000000000000000000000000000000000000000006001600160a01b03168152602090f35b34610130576101403660031901126101305761048d6106a4565b5060a03660231901126101305760603660c3190112610130576101243567ffffffffffffffff8111610130576104c79036906004016106ba565b50507f00000000000000000000000000000000000000000000000000000000000000006001600160a01b0316330361029557606062ffffff610507610926565b906040939293519363ffffffff60e01b1684526020840152166040820152f35b34610130575f366003190112610130576020604051600f8152f35b3461013057366003190161012081126101305760a0136101305760803660a31901126101305760405161057481610862565b6004356001600160a01b03811681036101305781526024356001600160a01b038116810361013057602082015260443562ffffff811681036101305760408201526064358060020b8103610130576060820152608435906001600160a01b03821682036101305760a0916080820152205f525f60205260405f2060a435815560c435600182015560e43560028201556003610104359101555f80f35b6106e8565b34610130576020366003190112610130576060816106335f93610832565b82815282602082015282604082015201526004355f526001602052608060405f2060405161066081610832565b815491828252600181015460208301908152606060036002840154936040860194855201549301928352604051938452516020840152516040830152516060820152f35b600435906001600160a01b038216820361013057565b9181601f840112156101305782359167ffffffffffffffff8311610130576020838186019501011161013057565b3461013057610160366003190112610130576004356001600160a01b0381168103610130575060a03660231901126101305760803660c3190112610130576101443567ffffffffffffffff8111610130576107479036906004016106ba565b5050630a85dc2960e01b5f908152600490fd5b34610130576101a0366003190112610130576004356001600160a01b0381168103610130575060a03660231901126101305760803660c3190112610130576101843567ffffffffffffffff8111610130576107479036906004016106ba565b60c435906001600160a01b038216820361013057565b60e435908160020b820361013057565b3461013057610120366003190112610130576004356001600160a01b0381168103610130575060a0366023190112610130576101043567ffffffffffffffff8111610130576107479036906004016106ba565b6080810190811067ffffffffffffffff82111761084e57604052565b634e487b7160e01b5f52604160045260245ffd5b60a0810190811067ffffffffffffffff82111761084e57604052565b60a0906023190112610130576040519061089782610862565b816024356001600160a01b03811681036101305781526044356001600160a01b038116810361013057602082015260643562ffffff811681036101305760408201526084358060020b810361013057606082015260a435906001600160a01b03821682036101305760800152565b9190820391821161091257565b634e487b7160e01b5f52601160045260245ffd5b60a03660231901126101305760405161093e81610862565b6024356001600160a01b038116810361013057808252604435916001600160a01b03831683036101305782602082015260643562ffffff811681036101305760408201526084358060020b810361013057606082015260a435906001600160a01b03821682036101305760a09160808201522091825f52600160205260405f20604051906109cb82610832565b8054825260018101549260208301908482526003600284015493604086019485520154946060850195865215610d90576001600160a01b0386169586810361013057506001600160a01b038116908181036101305750604051634d1df00760e01b8152600481019690965260248601526080856044817f00000000000000000000000000000000000000000000000000000000000000006001600160a01b03165afa948515610d85575f95610d0e575b506060850151908115918215610cf8575b5050610ca75760e4355f811215610ca157600160ff1b8114610912575f03905b518110610c4f5760208401516040850151909490808611610c44575060ff60015b169485158015610c39575b610be657610ae69151610905565b92511115610b965751811115610b4c575f80516020610da08339815191529160a091604051918252606060208301526011606083015270696d70726f76656d656e745f726f75746560781b60808301526040820152a25b6315d7892d60e21b905f908190565b50505f80516020610da083398151915260a06040515f815260606020820152600f60608201526e18995b1bddd7dd1a1c995cda1bdb19608a1b60808201525f6040820152a2610b3d565b505f80516020610da08339815191529160a09160405191825260606020830152600b60608301526a7768616c655f726f75746560a81b60808301526040820152a26315d7892d60e21b905f908190565b5050505050505f80516020610da083398151915260a06040515f815260606020820152600a6060820152691b1bd8d85b17d8995cdd60b21b60808201525f6040820152a26315d7892d60e21b905f908190565b508082511115610ad8565b945060ff6002610acd565b505050505f80516020610da083398151915260a06040515f815260606020820152600b60608201526a736d616c6c5f747261646560a81b60808201525f6040820152a26315d7892d60e21b905f908190565b90610aac565b505050505f80516020610da083398151915260a06040515f815260606020820152600a6060820152697374616c655f6461746160b01b60808201525f6040820152a26315d7892d60e21b905f908190565b610d0491925042610905565b9051105f80610a8c565b90945060803d608011610d7e575b601f8101601f1916820167ffffffffffffffff81118382101761084e5760809183916040528101031261013057606060405191610d5883610832565b80518352602081015160208401526040810151604084015201516060820152935f610a7b565b503d610d1c565b6040513d5f823e3d90fd5b63486aa30760e01b5f5260045ffdfeb010144d2a4e7ed3a7010c5dd90527ef5abe14de3b7b20c04dd0931ca67e168ba2646970667358221220ee3110ea441e9dadf85877ef52318fe053ed3a36c5067aa47883cb658c4f0d8664736f6c634300081a0033","linkReferences":{}},"methodIdentifiers":{"CHAIN_BASE()":"adbf26b3","CHAIN_OPTIMISM()":"bede10f5","CHAIN_UNICHAIN()":"72ab3682","DEFAULT_MAX_STALENESS()":"c725d4d4","DEFAULT_ROUTING_THRESHOLD()":"348af9ec","afterAddLiquidity(address,(address,address,uint24,int24,address),(int24,int24,int256,bytes32),int256,int256,bytes)":"9f063efc","afterDonate(address,(address,address,uint24,int24,address),uint256,uint256,bytes)":"e1b4af69","afterInitialize(address,(address,address,uint24,int24,address),uint160,int24)":"6fe7e6eb","afterRemoveLiquidity(address,(address,address,uint24,int24,address),(int24,int24,int256,bytes32),int256,int256,bytes)":"6c2bbe7e","afterSwap(address,(address,address,uint24,int24,address),(bool,int256,uint160),int256,bytes)":"b47b2fb1","beforeAddLiquidity(address,(address,address,uint24,int24,address),(int24,int24,int256,bytes32),bytes)":"259982e5","beforeDonate(address,(address,address,uint24,int24,address),uint256,uint256,bytes)":"b6a8b0fa","beforeInitialize(address,(address,address,uint24,int24,address),uint160)":"dc98354e","beforeRemoveLiquidity(address,(address,address,uint24,int24,address),(int24,int24,int256,bytes32),bytes)":"21d0ee70","beforeSwap(address,(address,address,uint24,int24,address),(bool,int256,uint160),bytes)":"575e24b4","cache()":"60c7d295","getPoolConfig(bytes32)":"037aadbe","poolManager()":"dc4c90d3","registerConfig((address,address,uint24,int24,address),(uint256,uint256,uint256,uint256))":"28e346b8"},"id":15}